:100000000C9467000C948F000C948F000C948F005C
:100010000C948F000C948F000C948F000C948F0024
:100020000C948F000C948F000C948F000C948F0014
:100030000C948F000C948F000C948F000C948F0004
:100040000C94EC050C948F000C945C060C94360612
:100050000C948F000C948F000C948F000C948F00E4
:100060000C948E060C948F000000000023002600E4
:1000700029007E306D79335B5F707F7B0000000864
:10008000000201000003040700000000000000005F
:1000900000000000250028002B00000000002400C4
:1000A00027002A00040404040404040402020202D7
:1000B000020203030303030301020408102040802B
:1000C000010204081020010204081020AD071124C9
:1000D0001FBECFEFD8E0DEBFCDBF11E0A0E0B1E0A2
:1000E000EEE9F5E102C005900D92A633B107D9F70C
:1000F00022E0A6E3B1E001C01D92AE3CB207E1F7F9
:1001000010E0C7E6D0E004C02197FE010E94C70AB4
:10011000C636D107C9F70E941D080C94CD0A0C946D
:100120000000CF93DF9390E0FC01E854FF4F24914F
:100130008C559F4FFC0184918823C1F090E0880F7B
:10014000991FFC01E656FF4FC591D491FC01E05781
:10015000FF4FA591B4919FB7F8943881822F809575
:1001600083238883EC91E22BEC939FBFDF91CF91A7
:100170000895FC01538D448D252F30E0842F90E0AD
:10018000821B930B541710F0CF9608950197089592
:10019000FC01918D828D981761F0A28DAE0FBF2F5B
:1001A000B11D5D968C91928D9F5F9F73928F90E0B1
:1001B00008958FEF9FEF0895FC01918D828D981720
:1001C00031F0828DE80FF11D858D90E008958FEF5D
:1001D0009FEF0895FC01918D228D892F90E0805C26
:1001E0009F4F821B91098F7399270895FC01A48D5D
:1001F000A80FB92FB11DA35ABF4F2C91848D90E049
:1002000001968F739927848FA689B7892C93A0892B
:10021000B1898C91837080648C93938D848D9813B5
:1002200006C00288F389E02D80818F7D8083089548
:10023000EF92FF920F931F93CF93DF93EC0181E036
:10024000888F9B8D8C8D98131AC0E889F9898081DD
:1002500085FF15C09FB7F894EE89FF896083E88910
:10026000F98980818370806480839FBF81E090E002
:10027000DF91CF911F910F91FF90EF900895F62E8F
:100280000B8D10E00F5F1F4F0F731127E02E8C8D29
:100290008E110CC00FB607FCFACFE889F98980816E
:1002A00085FFF5CFCE010E94F600F1CFEB8DEC0F6C
:1002B000FD2FF11DE35AFF4FF0829FB7F8940B8F8B
:1002C000EA89FB8980818062CFCFCF93DF93EC01F5
:1002D000888D8823B9F0AA89BB89E889F9898C912E
:1002E00085FD03C0808186FD0DC00FB607FCF7CFEA
:1002F0008C9185FFF2CF808185FFEDCFCE010E94EA
:10030000F600E9CFDF91CF9108958FEF91E00E9441
:10031000EA0021E0892B09F420E0822F089580E093
:1003200090E0892B29F00E94850181110C94000036
:100330000895833081F028F4813099F08230A9F05B
:1003400008958730A9F08830C9F08430B1F48091E5
:1003500080008F7D03C0809180008F778093800024
:10036000089584B58F7784BD089584B58F7DFBCFC4
:100370008091B0008F778093B00008958091B00095
:100380008F7DF9CF1F93CF93DF93282F30E0F901B2
:10039000E458FF4F8491F901E854FF4FD491F901DB
:1003A000EC55FF4FC491CC23A9F0162F81110E9468
:1003B0009901EC2FF0E0EE0FFF1FE057FF4FA591E2
:1003C000B4918FB7F894EC91111108C0D095DE2349
:1003D000DC938FBFDF91CF911F910895DE2BF8CF73
:1003E000789484B5826084BD84B5816084BD85B510
:1003F000826085BD85B5816085BDEEE6F0E08081D7
:1004000081608083E1E8F0E01082808182608083F7
:10041000808181608083E0E8F0E08081816080837A
:10042000E1EBF0E0808184608083E0EBF0E08081AC
:1004300081608083EAE7F0E080818460808380814E
:1004400082608083808181608083808180688083F6
:100450001092C10008953FB7F8948091AB0190913C
:10046000AC01A091AD01B091AE0126B5A89B05C02D
:100470002F3F19F00196A11DB11D3FBFBA2FA92F23
:10048000982F8827BC01CD01620F711D811D911D20
:1004900042E0660F771F881F991F4A95D1F708958C
:1004A0002FB7F8946091A7017091A8018091A901DC
:1004B0009091AA012FBF089580917E0190917F01B4
:1004C000891B990B089508950895AF92BF92CF921A
:1004D000DF92EF92FF920F931F93CF93DF936C0104
:1004E0007B018B01040F151FEB015E01AE18BF08E5
:1004F000C017D10759F06991D601ED91FC91019097
:10050000F081E02DC6010995892B79F7C501DF91AE
:10051000CF911F910F91FF90EF90DF90CF90BF9000
:10052000AF90089520915701260F3327331F2132B2
:100530003105ECF42091D501FC0190E080E02430FD
:1005400069F082E00895A09157012191AC01495CC6
:100550005E4FA40FB52FB11D2C930196861798F30B
:1005600080915701680F6093570180E0089581E002
:1005700008951092D50181E08093D4011092AF01CB
:1005800061E082E10E94C20161E083E10E94C20158
:10059000E9EBF0E080818E7F808380818D7F808396
:1005A00088E48093B80085E48093BC000895CF93DD
:1005B000DF9391E0909336018823B9F0C091B800A1
:1005C000D091BA008091BC008A7B8093BC0060E02F
:1005D00082E10E94C20160E083E10E94C2010E94A8
:1005E000B902D093BA00C093B800DF91CF910895BB
:1005F000CF92DF92EF92FF920F931F93CF93DF93EF
:10060000D091FE0181E0D13208F09CC0C091FD0183
:100610000E942B026B017C018091D50181116CC07D
:1006200082E08093D50181E08093D4018FEF8093A5
:10063000D3011092D201D093D101ADEDB1E0E1EB45
:10064000F1E080E0D8138DC01092B0018091B0012C
:10065000CC0FC82BC093B0018091AF01813009F05D
:1006600084C01092AF010E942B026B017C0180912B
:10067000B0018093BB008091D7019091D801A091E7
:10068000D901B091DA01892B8A2B8B2BA1F00E9422
:100690002B020091D7011091D8012091D9013091FE
:1006A000DA016C197D098E099F09061717072807BB
:1006B000390708F442C08091BC0083FDD8CF85EC97
:1006C0008093BC000E942B026B017C018091D501BC
:1006D000823009F44CC08091D3018F3F09F469C086
:1006E0008091D301803209F466C08091D3018033B8
:1006F00009F463C084E026C08091D7019091D801AD
:10070000A091D901B091DA01892B8A2B8B2B09F4A6
:1007100083CF0E942B020091D7011091D801209124
:10072000D9013091DA016C197D098E099F090617EC
:1007300017072807390708F06FCF8091D6010E946C
:10074000D70285E01092DC011092FE011092DB01CD
:10075000DF91CF911F910F91FF90EF90DF90CF909D
:1007600008959D9191938F5F6DCF85EEA9CF809174
:10077000D7019091D801A091D901B091DA01892BCC
:100780008A2B8B2B09F4A2CF0E942B020091D70158
:100790001091D8012091D9013091DA016C197D09AD
:1007A0008E099F09061717072807390708F08ECF0B
:1007B000C4CF80E0C7CF82E0C5CF83E0C3CF089528
:1007C000E0917F0180917E01E81730F4F0E0E0587D
:1007D000FE4F808190E008958FEF9FEF08959091F4
:1007E0007F0180917E012FEF3FEF981748F4E92FAA
:1007F000F0E0E058FE4F208130E09F5F90937F0152
:10080000C9010895CF92DF92EF92FF920F931F9349
:10081000CF93DF937C01CB018A012091DB0122235E
:1008200089F0EB016B01C40ED51ECC15DD0569F016
:100830006991D701ED91FC910190F081E02DC70104
:100840000995F3CF642F0E949202C801DF91CF91E6
:100850001F910F91FF90EF90DF90CF900895CF936D
:10086000DF931F92CDB7DEB769832091DB0122238E
:10087000F9F02091FE01203258F021E030E0FC0137
:100880003383228390E080E00F90DF91CF91089531
:100890008091DC01E82FF0E0E352FE4F99819083D4
:1008A0008F5F8093DC018093FE0181E090E0ECCFCC
:1008B00061E0CE0101960E949202F7CF682F8CE989
:1008C00092E00C942F0490E080E00895CF93C62F1F
:1008D00091E09093DB018093FD011092DC01109276
:1008E000FE01262F2150330BC901880F991F880F55
:1008F000991F06960E945E0490E080E00E945E04CC
:1009000090E080E00E945E04C33069F464EA8CE900
:1009100092E00E942F0466E08CE992E00E942F048E
:10092000CF910C94F80260E28CE992E00E942F04CF
:1009300063E0F2CF0F931F93CF938C01FC01808172
:10094000C1E0C093DB018093FD011092DC011092A5
:10095000FE0190E080E00E945E0481E290E00E944F
:100960005E040E94F802F8018081C093DB0180934D
:10097000FD011092DC011092FE0181E090E00E94E6
:100980005E0484E090E00E945E04CF911F910F917D
:100990000C94F802EF92FF920F931F93CF93DF9383
:1009A000EC01162F042F6730D9F48A81982F9170AB
:1009B000491709F451C084FF04C063E088810E9494
:1009C00066048A8182FF04C065E088810E94660413
:1009D0000E9450026B837C838D839E8381E08F8392
:1009E000888191E09093DB018093FD011092DC01FE
:1009F0001092FE01E12EF12CC701880F991F880F7C
:100A0000991F02960E945E0490E080E00E945E04BE
:100A100090E080E00E945E04002329F162EE8CE900
:100A200092E00E942F0464E08CE992E00E942F047F
:100A30000E94F80227E030E02E193F0981E090E0A3
:100A4000AC0102C0440F551F2A95E2F79A018A8132
:100A50000023D1F0842B8A83DF91CF911F910F91D6
:100A6000FF90EF9008951250123038F460ED8CE949
:100A700092E00E942F0467E0D7CF64EF8CE992E008
:100A80000E942F0461E0D0CF20958223E4CF0F9302
:100A90001F93CF938C018FEFF8018283C1E040E078
:100AA0006C2FC8010E94CA04CF5FC830C1F7F8019B
:100AB0001282CF911F910F910895FC0101900020A7
:100AC000E9F73197AF01481B590BBC018FEF91E05B
:100AD0000C946502CF92DF92EF92FF920F931F93D7
:100AE000CF93DF93CDB7DEB7A1970FB6F894DEBFF3
:100AF0000FBECDBF282F30E050E040E019A28E019C
:100B00000F5D1F4F8AE0C82ED12CE12CF12CCA01B9
:100B1000B901A70196010E94A50A605DF8016293E0
:100B20008F01211531054105510589F73097C9F02D
:100B3000CF010E945D058C0186E291E00E945D0577
:100B4000800F911FA1960FB6F894DEBF0FBECDBFE8
:100B5000DF91CF911F910F91FF90EF90DF90CF9099
:100B6000089510E000E0E8CF85ED8093BC0080910F
:100B7000D7019091D801A091D901B091DA010796DF
:100B8000A11DB11D23E0B695A795979587952A9548
:100B9000D1F72091BC0024FD03C01092D501089527
:100BA0004091D7015091D8016091D9017091DA013B
:100BB000452B462B472B69F30097A105B10541F062
:100BC0002AE22A95F1F700C00197A109B109E1CF06
:100BD0008091D6010C94D7021F920F920FB60F92FC
:100BE00011242F933F938F939F93AF93BF93809143
:100BF000A7019091A801A091A901B091AA013091FB
:100C0000A60123E0230F2D3758F50196A11DB11D34
:100C10002093A6018093A7019093A801A093A90116
:100C2000B093AA018091AB019091AC01A091AD016C
:100C3000B091AE010196A11DB11D8093AB019093BF
:100C4000AC01A093AD01B093AE01BF91AF919F9164
:100C50008F913F912F910F900FBE0F901F9018957D
:100C600026E8230F0296A11DB11DD2CF1F920F922D
:100C70000FB60F9211242F933F934F935F936F936F
:100C80007F938F939F93AF93BF93EF93FF938FEFD8
:100C900091E00E94F600FF91EF91BF91AF919F917B
:100CA0008F917F916F915F914F913F912F910F9015
:100CB0000FBE0F901F9018951F920F920FB60F92B4
:100CC00011242F938F939F93EF93FF93E0910F0243
:100CD000F09110028081E0911502F091160282FDE0
:100CE0001BC09081809118028F5F8F732091190231
:100CF000821741F0E0911802F0E0E150FE4F958F2D
:100D000080931802FF91EF919F918F912F910F90F7
:100D10000FBE0F901F9018958081F4CF1F920F92F5
:100D20000FB60F9211242F933F934F935F936F93BE
:100D30007F938F939F93AF93BF93EF93FF93809194
:100D4000B900887F803609F44AC0F0F5883209F48A
:100D5000A7C018F5803109F49BC0B8F4882309F4C2
:100D6000F9C0883009F494C0FF91EF91BF91AF9121
:100D70009F918F917F916F915F914F913F912F91B3
:100D80000F900FBE0F901F901895883109F488C0FE
:100D9000803251F78093D30114C0803409F49DC090
:100DA00040F48033B9F38833F9F68093D30185ECAE
:100DB000B0C0803509F485C0883509F496C0883400
:100DC00099F60E94B405D0CF883909F48CC038F563
:100DD000883729F050F4883611F0803729F683E0FF
:100DE0008093D5011092790157C0883809F47BC0EF
:100DF000803919F0803809F0B7CF809179018032BD
:100E000008F071C0E091790181E08E0F8093790143
:100E10008091BB00F0E0E75AFE4F80833DC0803BED
:100E200039F0E0F4803A09F479C0883A09F09CCFAF
:100E300084E08093D5011092580110925701E091FF
:100E40007C01F0917D0109958091570181110FC0BE
:100E500081E0809357011092370109C0803C09F46A
:100E6000A6CF883C09F4A3CF883B09F07DCFE09161
:100E7000580181E08E0F80935801F0E0E95CFE4F4D
:100E800080818093BB00909158018091570129C0C7
:100E90008091B0018093BB0085EC8093BC0064CF4F
:100EA0009091D2018091D101981758F5E091D2012B
:100EB00081E08E0F8093D201F0E0EF54FE4F8081ED
:100EC000E9CFE091D20181E08E0F8093D201809131
:100ED000BB00F0E0EF54FE4F80839091D2018091EF
:100EE000D1019817C8F285E8D8CFE091D20181E00E
:100EF0008E0F8093D2018091BB00F0E0EF54FE4F43
:100F000080838091D40181115CCF81E08093AF0117
:100F100084EA8093BC001092D50126CF85EC8093A3
:100F2000BC001092D50180917901803230F4E091BB
:100F30007901F0E0E75AFE4F10826091790170E08C
:100F4000E0917A01F0917B0189E591E00995109299
:100F500079010ACF1092D30134CFCF93DF93EFEF13
:100F6000F1E01382128288EE93E0A0E0B0E0848387
:100F70009583A683B78326E031E03183208325EC77
:100F800030E03587248724EC30E03787268720EC53
:100F900030E0318B208B21EC30E0338B228B22EC44
:100FA00030E0358B248B26EC30E0378B268B118E8E
:100FB000128E138E148EECE9F2E013821282848377
:100FC0009583A683B78388E191E0918380830E9413
:100FD000F001CEEAD2E080E488831A82CE010E943A
:100FE0009A040E94F00181E488871A8686EB92E0D9
:100FF0000E949A040E94F00182E4888B1A8A8EEB88
:1010000092E00E949A040E94F00183E4888F1A8E75
:1010100086EC92E00E949A040E94F001C8EAD2E0B5
:1010200088EE93E0998388830E9450026A837B83D1
:101030008C839D83DF91CF9108950E94F0011092DF
:101040007F0110927E011092DC011092FE010E943D
:10105000B90283E692E090937D0180937C0184E65F
:1010600092E090937B0180937A01C6EDD2E07EEA14
:10107000E72E72E0F72EC7010E949A04C7010E9472
:10108000470548E0E40EF11CCE15DF05A1F782E02C
:101090000E94910084E00E94910081E08093DB0136
:1010A00088E68093FD011092DC011092FE0190E031
:1010B00080E00E945E0482E090E00E945E0485E091
:1010C00090E00E945E0483E190E00E945E040E9432
:1010D000F802992493945AE0852E62E0262ECEEAF7
:1010E000D2E00E9450020B811C812D813E81601B49
:1010F000710B820B930B693C71058105910598F08A
:101100008F81882381F01F824A814295417063E07C
:10111000CE010E94CA044A8142FB442740F965E09F
:10112000CE010E94CA042896EC16FD06D1F60E9454
:1011300050020091AA021091AB022091AC023091B2
:10114000AD02AB01BC01401B510B620B730B8091D4
:10115000A8029091A902B0E0A0E0481759076A07D9
:101160007B0708F4D1C10E9450026093AA027093D9
:10117000AB028093AC029093AD02EEE7F0E0849175
:10118000EAEBF0E0C491E6EAF0E0D491DD2309F463
:10119000BBC181110E949901ED2FF0E0EE0FFF1FFE
:1011A000E859FF4FA591B4918C91C82309F4ACC1C3
:1011B000809100019091010101969093010180932B
:1011C00000019092DB01F8E6F093FD011092DC0142
:1011D0001092FE0190E080E00E945E040E94F802FE
:1011E0000E942B022B013C018091D501811163C02B
:1011F0009092D5019092D4014FEF4093D301109279
:10120000D2012092D1019092B0018091B001806D05
:101210008093B0018091AF01813009F0F6C0109247
:10122000AF010E942B022B013C018091B001809301
:10123000BB008091D7019091D801A091D901B091C4
:10124000DA01892B8A2B8B2BA1F00E942B020091B3
:10125000D7011091D8012091D9013091DA01641998
:10126000750986099709061717072807390708F42B
:1012700043C08091BC0083FDD8CF85EC8093BC0037
:101280000E942B022B013C018091D501813009F491
:10129000BEC08091D201833008F0DBC08091D201C2
:1012A000A1EBB1E0E0E8F1E090E0981751F12D9169
:1012B00021939F5FFACF8091D7019091D801A0919F
:1012C000D901B091DA01892B8A2B8B2B09F48CCFB1
:1012D0000E942B020091D7011091D8012091D901D1
:1012E0003091DA01641975098609970906171707FD
:1012F0002807390708F078CF8091D6010E94D702DD
:1013000080E010927F0180937E01833090F08CE921
:1013100092E00E94EF038093A3018CE992E00E9487
:10132000EF038093A4018CE992E00E94EF03809385
:10133000A5018091A301982F92959F708F70989D21
:10134000800D11248093A0019091A401292F229552
:101350002F709F70289D900D11249093A101909162
:10136000A501292F22952F709F70289D900D112483
:101370009093A2010E946A058091A1010E946A05D2
:101380008091A2010E946A0589E291E00E945D05B8
:1013900086E291E00E945D058DE291E00E945D058C
:1013A00086E291E00E945D0500910001109101012B
:1013B0009801012E000C440B550BD1E0211531058D
:1013C0004105510579F0D0E0CA01B9012AE030E0C9
:1013D00040E050E00E94A50ADF5F2115310541057C
:1013E000510591F720E03AE0A32EB12CED2FE25009
:1013F000FF0BCF012817190670F5A501849E500137
:10140000859EB00C11242F5FF5CF85EE37CF8091EC
:10141000D7019091D801A091D901B091DA01892B1F
:101420008A2B8B2B09F430CF0E942B020091D7011D
:101430001091D8012091D9013091DA016419750910
:1014400086099709061717072807390708F01CCFE0
:1014500053CF83E025CF9EEAC92E92E0D92EC0E07B
:10146000CD17A1F1C801B5010E94910A8B013C0181
:10147000C6010E949A04F801FF27EE58FF4FE4913D
:101480003324339406E010E04E2E512CC201002E7E
:1014900002C0959587950A94E2F741E080FF40E00D
:1014A000632DC6010E94CA0401501109339458E00B
:1014B0003512ECCF8301C5016AE070E00E94910A09
:1014C0005B01CF5F88E0C80ED11CCACFD12CC12CE4
:1014D000AC2EB12CC430C0F48C2F0E946A0585015B
:1014E0000C0D1D1D83E0000F111F8A95E1F70255B9
:1014F0001D4FC8010E949A04C8010E944705CF5F92
:101500009FEFC91AD90AE6CFE0E0F0E0EF2B09F42B
:10151000E6CD0E948501882309F4DDCD0E940000FC
:10152000D8CDAA1BBB1B51E107C0AA1FBB1FA61722
:10153000B70710F0A61BB70B881F991F5A95A9F77C
:1015400080959095BC01CD010895A1E21A2EAA1BA9
:10155000BB1BFD010DC0AA1FBB1FEE1FFF1FA21763
:10156000B307E407F50720F0A21BB30BE40BF50B60
:10157000661F771F881F991F1A9469F760957095E9
:10158000809590959B01AC01BD01CF010895EE0FB0
:0E159000FF1F0590F491E02D0994F894FFCF11
:10159E0037090000000018016502B9006501EA0074
:1015AE00C800DC00000000002F0402046304DF0307
:1015BE005C02EF03E0030D0A00656E640031333AFE
:0615CE0030353A30320016
:00000001FF
